{
  "contractName": "SFTR",
  "abi": [
    {
      "constant": false,
      "inputs": [
        {
          "name": "in_public_key",
          "type": "uint8[]"
        }
      ],
      "name": "set_pubkey",
      "outputs": [],
      "payable": false,
      "stateMutability": "nonpayable",
      "type": "function",
      "signature": "0xa01815a2"
    },
    {
      "constant": true,
      "inputs": [
        {
          "name": "in_public_address",
          "type": "address"
        }
      ],
      "name": "get_pubkey",
      "outputs": [
        {
          "name": "",
          "type": "uint8[]"
        }
      ],
      "payable": false,
      "stateMutability": "view",
      "type": "function",
      "signature": "0x6147c8ab"
    },
    {
      "constant": false,
      "inputs": [
        {
          "name": "receiver_address",
          "type": "address"
        },
        {
          "name": "box",
          "type": "uint8[]"
        },
        {
          "name": "nonce",
          "type": "uint8[]"
        }
      ],
      "name": "send_data",
      "outputs": [],
      "payable": false,
      "stateMutability": "nonpayable",
      "type": "function",
      "signature": "0x1a78a74f"
    },
    {
      "constant": true,
      "inputs": [],
      "name": "get_data",
      "outputs": [
        {
          "name": "sender_addres",
          "type": "address"
        },
        {
          "name": "",
          "type": "uint8[]"
        },
        {
          "name": "",
          "type": "uint8[]"
        }
      ],
      "payable": false,
      "stateMutability": "view",
      "type": "function",
      "signature": "0x50bf8b0d"
    }
  ],
  "bytecode": "0x608060405234801561001057600080fd5b50610a29806100206000396000f3fe608060405260043610610062576000357c0100000000000000000000000000000000000000000000000000000000900463ffffffff1680631a78a74f1461006757806350bf8b0d146101e05780636147c8ab146102c7578063a01815a21461036d575b600080fd5b34801561007357600080fd5b506101de6004803603606081101561008a57600080fd5b81019080803573ffffffffffffffffffffffffffffffffffffffff169060200190929190803590602001906401000000008111156100c757600080fd5b8201836020820111156100d957600080fd5b803590602001918460208302840111640100000000831117156100fb57600080fd5b919080806020026020016040519081016040528093929190818152602001838360200280828437600081840152601f19601f8201169050808301925050505050505091929192908035906020019064010000000081111561015b57600080fd5b82018360208201111561016d57600080fd5b8035906020019184602083028401116401000000008311171561018f57600080fd5b919080806020026020016040519081016040528093929190818152602001838360200280828437600081840152601f19601f820116905080830192505050505050509192919290505050610432565b005b3480156101ec57600080fd5b506101f561054e565b604051808473ffffffffffffffffffffffffffffffffffffffff1673ffffffffffffffffffffffffffffffffffffffff1681526020018060200180602001838103835285818151815260200191508051906020019060200280838360005b8381101561026e578082015181840152602081019050610253565b50505050905001838103825284818151815260200191508051906020019060200280838360005b838110156102b0578082015181840152602081019050610295565b505050509050019550505050505060405180910390f35b3480156102d357600080fd5b50610316600480360360208110156102ea57600080fd5b81019080803573ffffffffffffffffffffffffffffffffffffffff169060200190929190505050610735565b6040518080602001828103825283818151815260200191508051906020019060200280838360005b8381101561035957808201518184015260208101905061033e565b505050509050019250505060405180910390f35b34801561037957600080fd5b506104306004803603602081101561039057600080fd5b81019080803590602001906401000000008111156103ad57600080fd5b8201836020820111156103bf57600080fd5b803590602001918460208302840111640100000000831117156103e157600080fd5b919080806020026020016040519081016040528093929190818152602001838360200280828437600081840152601f19601f8201169050808301925050505050505091929192905050506107f1565b005b61043a610847565b82816000018190525081816020018190525033816040019073ffffffffffffffffffffffffffffffffffffffff16908173ffffffffffffffffffffffffffffffffffffffff168152505080600160008673ffffffffffffffffffffffffffffffffffffffff1673ffffffffffffffffffffffffffffffffffffffff16815260200190815260200160002060008201518160000190805190602001906104e092919061087f565b5060208201518160010190805190602001906104fd92919061087f565b5060408201518160020160006101000a81548173ffffffffffffffffffffffffffffffffffffffff021916908373ffffffffffffffffffffffffffffffffffffffff16021790555090505050505050565b6000606080600160003373ffffffffffffffffffffffffffffffffffffffff1673ffffffffffffffffffffffffffffffffffffffff16815260200190815260200160002060020160009054906101000a900473ffffffffffffffffffffffffffffffffffffffff16600160003373ffffffffffffffffffffffffffffffffffffffff1673ffffffffffffffffffffffffffffffffffffffff168152602001908152602001600020600001600160003373ffffffffffffffffffffffffffffffffffffffff1673ffffffffffffffffffffffffffffffffffffffff168152602001908152602001600020600101818054806020026020016040519081016040528092919081815260200182805480156106ab57602002820191906000526020600020906000905b82829054906101000a900460ff1660ff16815260200190600101906020826000010492830192600103820291508084116106745790505b505050505091508080548060200260200160405190810160405280929190818152602001828054801561072357602002820191906000526020600020906000905b82829054906101000a900460ff1660ff16815260200190600101906020826000010492830192600103820291508084116106ec5790505b50505050509050925092509250909192565b60606000808373ffffffffffffffffffffffffffffffffffffffff1673ffffffffffffffffffffffffffffffffffffffff1681526020019081526020016000208054806020026020016040519081016040528092919081815260200182805480156107e557602002820191906000526020600020906000905b82829054906101000a900460ff1660ff16815260200190600101906020826000010492830192600103820291508084116107ae5790505b50505050509050919050565b806000803373ffffffffffffffffffffffffffffffffffffffff1673ffffffffffffffffffffffffffffffffffffffff1681526020019081526020016000209080519060200190610843929190610926565b5050565b6060604051908101604052806060815260200160608152602001600073ffffffffffffffffffffffffffffffffffffffff1681525090565b82805482825590600052602060002090601f016020900481019282156109155791602002820160005b838211156108e657835183826101000a81548160ff021916908360ff16021790555092602001926001016020816000010492830192600103026108a8565b80156109135782816101000a81549060ff02191690556001016020816000010492830192600103026108e6565b505b50905061092291906109cd565b5090565b82805482825590600052602060002090601f016020900481019282156109bc5791602002820160005b8382111561098d57835183826101000a81548160ff021916908360ff160217905550926020019260010160208160000104928301926001030261094f565b80156109ba5782816101000a81549060ff021916905560010160208160000104928301926001030261098d565b505b5090506109c991906109cd565b5090565b6109fa91905b808211156109f657600081816101000a81549060ff0219169055506001016109d3565b5090565b9056fea165627a7a7230582099fec06dc74563fe5246533c1e968358c847c8729bbf2b82a28ba6b88a7a488e0029",
  "source": "pragma solidity ^0.5.0;\n\ncontract SFTR\n{\n\tstruct encrypted_data\n\t{\n\t\tuint8[] box;\n\t\tuint8[] nonce;\n\t\taddress sender;\n\t}\n\n\tmapping(address => uint8[]) pub_keys;\n\tmapping(address => encrypted_data) data_store;\n\n\tfunction set_pubkey(uint8[] memory in_public_key) public\n\t{\n\t\tpub_keys[msg.sender] = in_public_key;\n\t}\n\n\tfunction get_pubkey(address in_public_address) view public returns (uint8[] memory)\n\t{\n\t\treturn pub_keys[in_public_address];\n\t}\n\n\tfunction send_data(address receiver_address, uint8[] memory box, uint8[] memory nonce) public\n\t{\n\t\tencrypted_data memory tmp;\n\t\ttmp.box = box;\n\t\ttmp.nonce = nonce;\n\t\ttmp.sender = msg.sender;\n\t\tdata_store[receiver_address] = tmp;\n\t}\n\n\tfunction get_data() view public returns (address sender_addres, uint8[] memory, uint8[] memory)\n\t{\n\t\treturn (data_store[msg.sender].sender, data_store[msg.sender].box, data_store[msg.sender].nonce);\n\t}\n}\n",
  "sourcePath": "/Users/jzl/Desktop/SFTR/SFTR-back/contracts/SFTR.sol",
  "compiler": {
    "name": "solc",
    "version": "0.5.0+commit.1d4f565a.Emscripten.clang"
  },
  "schemaVersion": "3.0.1",
  "updatedAt": "2019-02-10T02:34:40.868Z",
  "devdoc": {
    "methods": {}
  },
  "userdoc": {
    "methods": {}
  }
}